{
  "_format": "hh-sol-artifact-1",
  "contractName": "ChaiFactory",
  "sourceName": "contracts/Chai.sol",
  "abi": [
    {
      "anonymous": false,
      "inputs": [
        {
          "indexed": false,
          "internalType": "string",
          "name": "title",
          "type": "string"
        },
        {
          "indexed": false,
          "internalType": "uint256",
          "name": "requiredAmount",
          "type": "uint256"
        },
        {
          "indexed": true,
          "internalType": "address",
          "name": "owner",
          "type": "address"
        },
        {
          "indexed": false,
          "internalType": "address",
          "name": "chaiAddress",
          "type": "address"
        },
        {
          "indexed": false,
          "internalType": "string",
          "name": "imgURI",
          "type": "string"
        },
        {
          "indexed": true,
          "internalType": "uint256",
          "name": "timestamp",
          "type": "uint256"
        }
      ],
      "name": "chaiCreated",
      "type": "event"
    },
    {
      "inputs": [
        {
          "internalType": "string",
          "name": "chaiTitle",
          "type": "string"
        },
        {
          "internalType": "uint256",
          "name": "requiredChaiAmount",
          "type": "uint256"
        },
        {
          "internalType": "string",
          "name": "imgURI",
          "type": "string"
        },
        {
          "internalType": "string",
          "name": "bioURI",
          "type": "string"
        }
      ],
      "name": "createChai",
      "outputs": [],
      "stateMutability": "nonpayable",
      "type": "function"
    },
    {
      "inputs": [
        {
          "internalType": "uint256",
          "name": "",
          "type": "uint256"
        }
      ],
      "name": "deployedChais",
      "outputs": [
        {
          "internalType": "address",
          "name": "",
          "type": "address"
        }
      ],
      "stateMutability": "view",
      "type": "function"
    }
  ],
  "bytecode": "0x608060405234801561001057600080fd5b506112ff806100206000396000f3fe60806040523480156200001157600080fd5b50600436106200003a5760003560e01c806359a1fd1e146200003f578063933d8c23146200005f575b600080fd5b6200005d60048036038101906200005791906200039a565b62000095565b005b6200007d600480360381019062000077919062000469565b6200019b565b6040516200008c9190620004e0565b60405180910390f35b60008484848433604051620000aa90620001db565b620000ba959493929190620005a1565b604051809103906000f080158015620000d7573d6000803e3d6000fd5b5090506000819080600181540180825580915050600190039060005260206000200160009091909190916101000a81548173ffffffffffffffffffffffffffffffffffffffff021916908373ffffffffffffffffffffffffffffffffffffffff160217905550423373ffffffffffffffffffffffffffffffffffffffff167f9a7e1711b1974ba216c51870e010c5c666250728b42efed1bed43027680bf3e6878785886040516200018c949392919062000613565b60405180910390a35050505050565b60008181548110620001ac57600080fd5b906000526020600020016000915054906101000a900473ffffffffffffffffffffffffffffffffffffffff1681565b610c5b806200066f83390190565b6000604051905090565b600080fd5b600080fd5b600080fd5b600080fd5b6000601f19601f8301169050919050565b7f4e487b7100000000000000000000000000000000000000000000000000000000600052604160045260246000fd5b620002528262000207565b810181811067ffffffffffffffff8211171562000274576200027362000218565b5b80604052505050565b600062000289620001e9565b905062000297828262000247565b919050565b600067ffffffffffffffff821115620002ba57620002b962000218565b5b620002c58262000207565b9050602081019050919050565b82818337600083830152505050565b6000620002f8620002f2846200029c565b6200027d565b90508281526020810184848401111562000317576200031662000202565b5b62000324848285620002d2565b509392505050565b600082601f830112620003445762000343620001fd565b5b813562000356848260208601620002e1565b91505092915050565b6000819050919050565b62000374816200035f565b81146200038057600080fd5b50565b600081359050620003948162000369565b92915050565b60008060008060808587031215620003b757620003b6620001f3565b5b600085013567ffffffffffffffff811115620003d857620003d7620001f8565b5b620003e6878288016200032c565b9450506020620003f98782880162000383565b935050604085013567ffffffffffffffff8111156200041d576200041c620001f8565b5b6200042b878288016200032c565b925050606085013567ffffffffffffffff8111156200044f576200044e620001f8565b5b6200045d878288016200032c565b91505092959194509250565b600060208284031215620004825762000481620001f3565b5b6000620004928482850162000383565b91505092915050565b600073ffffffffffffffffffffffffffffffffffffffff82169050919050565b6000620004c8826200049b565b9050919050565b620004da81620004bb565b82525050565b6000602082019050620004f76000830184620004cf565b92915050565b600081519050919050565b600082825260208201905092915050565b60005b83811015620005395780820151818401526020810190506200051c565b8381111562000549576000848401525b50505050565b60006200055c82620004fd565b62000568818562000508565b93506200057a81856020860162000519565b620005858162000207565b840191505092915050565b6200059b816200035f565b82525050565b600060a0820190508181036000830152620005bd81886200054f565b9050620005ce602083018762000590565b8181036040830152620005e281866200054f565b90508181036060830152620005f881856200054f565b9050620006096080830184620004cf565b9695505050505050565b600060808201905081810360008301526200062f81876200054f565b905062000640602083018662000590565b6200064f6040830185620004cf565b81810360608301526200066381846200054f565b90509594505050505056fe60806040523480156200001157600080fd5b5060405162000c5b38038062000c5b8339818101604052810190620000379190620003c2565b84600090805190602001906200004f929190620000d5565b508360018190555082600290805190602001906200006f929190620000d5565b50816003908051906020019062000088929190620000d5565b5080600460006101000a81548173ffffffffffffffffffffffffffffffffffffffff021916908373ffffffffffffffffffffffffffffffffffffffff16021790555050505050506200050c565b828054620000e390620004d6565b90600052602060002090601f01602090048101928262000107576000855562000153565b82601f106200012257805160ff191683800117855562000153565b8280016001018555821562000153579182015b828111156200015257825182559160200191906001019062000135565b5b50905062000162919062000166565b5090565b5b808211156200018157600081600090555060010162000167565b5090565b6000604051905090565b600080fd5b600080fd5b600080fd5b600080fd5b6000601f19601f8301169050919050565b7f4e487b7100000000000000000000000000000000000000000000000000000000600052604160045260246000fd5b620001ee82620001a3565b810181811067ffffffffffffffff8211171562000210576200020f620001b4565b5b80604052505050565b60006200022562000185565b9050620002338282620001e3565b919050565b600067ffffffffffffffff821115620002565762000255620001b4565b5b6200026182620001a3565b9050602081019050919050565b60005b838110156200028e57808201518184015260208101905062000271565b838111156200029e576000848401525b50505050565b6000620002bb620002b58462000238565b62000219565b905082815260208101848484011115620002da57620002d96200019e565b5b620002e78482856200026e565b509392505050565b600082601f83011262000307576200030662000199565b5b815162000319848260208601620002a4565b91505092915050565b6000819050919050565b620003378162000322565b81146200034357600080fd5b50565b60008151905062000357816200032c565b92915050565b600073ffffffffffffffffffffffffffffffffffffffff82169050919050565b60006200038a826200035d565b9050919050565b6200039c816200037d565b8114620003a857600080fd5b50565b600081519050620003bc8162000391565b92915050565b600080600080600060a08688031215620003e157620003e06200018f565b5b600086015167ffffffffffffffff81111562000402576200040162000194565b5b6200041088828901620002ef565b9550506020620004238882890162000346565b945050604086015167ffffffffffffffff81111562000447576200044662000194565b5b6200045588828901620002ef565b935050606086015167ffffffffffffffff81111562000479576200047862000194565b5b6200048788828901620002ef565b92505060806200049a88828901620003ab565b9150509295509295909350565b7f4e487b7100000000000000000000000000000000000000000000000000000000600052602260045260246000fd5b60006002820490506001821680620004ef57607f821691505b60208210811415620005065762000505620004a7565b5b50919050565b61073f806200051c6000396000f3fe6080604052600436106100705760003560e01c80639632e7201161004e5780639632e720146100f6578063ed88c68e14610121578063f3ccaac01461012b578063f516b4221461015657610070565b806348b9ef40146100755780634a79d50c146100a05780638da5cb5b146100cb575b600080fd5b34801561008157600080fd5b5061008a610181565b6040516100979190610485565b60405180910390f35b3480156100ac57600080fd5b506100b5610187565b6040516100c29190610539565b60405180910390f35b3480156100d757600080fd5b506100e0610215565b6040516100ed919061059c565b60405180910390f35b34801561010257600080fd5b5061010b61023b565b6040516101189190610485565b60405180910390f35b610129610241565b005b34801561013757600080fd5b50610140610350565b60405161014d9190610539565b60405180910390f35b34801561016257600080fd5b5061016b6103de565b6040516101789190610539565b60405180910390f35b60015481565b60008054610194906105e6565b80601f01602080910402602001604051908101604052809291908181526020018280546101c0906105e6565b801561020d5780601f106101e25761010080835404028352916020019161020d565b820191906000526020600020905b8154815290600101906020018083116101f057829003601f168201915b505050505081565b600460009054906101000a900473ffffffffffffffffffffffffffffffffffffffff1681565b60055481565b60055460015411610287576040517f08c379a000000000000000000000000000000000000000000000000000000000815260040161027e90610664565b60405180910390fd5b600460009054906101000a900473ffffffffffffffffffffffffffffffffffffffff1673ffffffffffffffffffffffffffffffffffffffff166108fc349081150290604051600060405180830381858888f193505050501580156102ef573d6000803e3d6000fd5b50346005600082825461030291906106b3565b9250508190555042343373ffffffffffffffffffffffffffffffffffffffff167fe6add99d06d9ad7fc456e746aa162eed6211c5002ef2dacdd67b8d2016822fba60405160405180910390a4565b6002805461035d906105e6565b80601f0160208091040260200160405190810160405280929190818152602001828054610389906105e6565b80156103d65780601f106103ab576101008083540402835291602001916103d6565b820191906000526020600020905b8154815290600101906020018083116103b957829003601f168201915b505050505081565b600380546103eb906105e6565b80601f0160208091040260200160405190810160405280929190818152602001828054610417906105e6565b80156104645780601f1061043957610100808354040283529160200191610464565b820191906000526020600020905b81548152906001019060200180831161044757829003601f168201915b505050505081565b6000819050919050565b61047f8161046c565b82525050565b600060208201905061049a6000830184610476565b92915050565b600081519050919050565b600082825260208201905092915050565b60005b838110156104da5780820151818401526020810190506104bf565b838111156104e9576000848401525b50505050565b6000601f19601f8301169050919050565b600061050b826104a0565b61051581856104ab565b93506105258185602086016104bc565b61052e816104ef565b840191505092915050565b600060208201905081810360008301526105538184610500565b905092915050565b600073ffffffffffffffffffffffffffffffffffffffff82169050919050565b60006105868261055b565b9050919050565b6105968161057b565b82525050565b60006020820190506105b1600083018461058d565b92915050565b7f4e487b7100000000000000000000000000000000000000000000000000000000600052602260045260246000fd5b600060028204905060018216806105fe57607f821691505b60208210811415610612576106116105b7565b5b50919050565b7f446f6e61746564206d6178696d756d20616d6f756e7420706f737369626c6500600082015250565b600061064e601f836104ab565b915061065982610618565b602082019050919050565b6000602082019050818103600083015261067d81610641565b9050919050565b7f4e487b7100000000000000000000000000000000000000000000000000000000600052601160045260246000fd5b60006106be8261046c565b91506106c98361046c565b9250827fffffffffffffffffffffffffffffffffffffffffffffffffffffffffffffffff038211156106fe576106fd610684565b5b82820190509291505056fea2646970667358221220379a1bd12b1181c50daf4dae4a25206c6400cb1a2eb0d5af63e3953cb5867ff564736f6c634300080a0033a2646970667358221220e7ebddebb9e1c57decc8743a5d85f5b7bd5f49fd10ccb8d3a5498b994482d9b964736f6c634300080a0033",
  "linkReferences": {},
  "deployedLinkReferences": {}
}